:100000000C9458000C9480000C9480000C94800098
:100010000C9480000C9480000C9480000C94800060
:100020000C9480000C9480000C9480000C940A05C1
:100030000C9480000C9480000C9480000C94800040
:100040000C9468040C9480000C94D8040C94B204B2
:100050000C9480000C9480000C9480000C94800020
:100060000C94CB050C9480000000000025002800B3
:100070002B00040404040404040402020202020229
:10008000030303030303010204081020408001025C
:1000900004081020010204081020000000080002DB
:1000A0000100000304070000000000000000F90642
:1000B00011241FBECFEFD8E0DEBFCDBF22E0A8E203
:1000C000B1E001C01D92A33CB207E1F711E0A0E04E
:1000D000B1E0E0EFF2E102C005900D92A832B10765
:1000E000D9F710E0C8E5D0E004C02197FE010E94D6
:1000F0000809C735D107C9F70E9478070C9476091B
:100100000C940000CF92DF92EF92FF920F931F9317
:10011000CF93DF936C017A018B01C0E0D0E0CE1564
:10012000DF0589F0D8016D918D01D601ED91FC912B
:100130000190F081E02DC6010995892B11F47E0113
:1001400002C02196ECCFC701DF91CF911F910F9193
:10015000FF90EF90DF90CF900895FC01918D828DFC
:10016000981761F0828DDF01A80FB11D5D968C910B
:10017000928D9F5F9F73928F90E008958FEF9FEF16
:100180000895FC01918D828D981731F0828DE80FD2
:10019000F11D858D90E008958FEF9FEF0895FC018C
:1001A000918D228D892F90E0805C9F4F821B910959
:1001B0008F739927089582ED91E00E94CF0021E08E
:1001C000892B09F420E0822F0895FC01848DDF0142
:1001D000A80FB11DA35ABF4F2C91848D90E00196BA
:1001E0008F739927848FA689B7892C93A089B189A9
:1001F0008C9180648C93938D848D981306C00288B3
:10020000F389E02D80818F7D80830895EF92FF92A6
:100210000F931F93CF93DF93EC0181E0888F9B8D29
:100220008C8D981305C0E889F989808185FD24C0EB
:10023000F62E0B8D10E00F5F1F4F0F731127E02E6E
:100240008C8DE8120CC00FB607FCFACFE889F9894B
:10025000808185FFF5CFCE010E94E500F1CF8B8D27
:10026000FE01E80FF11DE35AFF4FF0820B8FEA8980
:10027000FB898081806207C0EE89FF896083E889FD
:10028000F98980818064808381E090E0DF91CF9163
:100290001F910F91FF90EF900895CF93DF93EC01A2
:1002A000888D8823C9F0EA89FB89808185FD05C096
:1002B000A889B9898C9186FD0FC00FB607FCF5CFD0
:1002C000808185FFF2CFA889B9898C9185FFEDCF18
:1002D000CE010E94E500E7CFDF91CF91089580E045
:1002E00090E0892B29F00E94DB0081110C94000022
:1002F000089590E0FC01E656FF4F3491FC01EA5767
:10030000FF4F2491FC01EE58FF4FE491EE2309F4D6
:100310003BC0332339F1333091F038F43130A9F058
:10032000323001F584B58F7D12C0373091F038300E
:10033000A1F03430B9F4809180008F7D03C08091AA
:1003400080008F77809380000DC084B58F7784BD47
:1003500009C08091B0008F7703C08091B0008F7D7D
:100360008093B000F0E0EE0FFF1FE859FF4FA5911A
:10037000B4918FB7F894EC91611103C020952E23AE
:1003800001C02E2B2C938FBF0895FC018FEF80832B
:1003900087E4818317821682109271011092700196
:1003A0001092CF011092CE011092AD0181E08093A6
:1003B000AC011092870161E082E10E94790161E065
:1003C00083E10E947901E9EBF0E080818E7F8083F8
:1003D00080818D7F808388E48093B80085E480935A
:1003E000BC00089585ED8093BC008091BC0084FD25
:1003F000FCCF1092AD01089540914A01262F30E0C4
:10040000240F311D21323105DCF42091AD0124305F
:10041000C9F4FC0180E090E0861758F430914A015D
:100420002191DC01A85DBE4FA30FB11D2C93019655
:10043000F3CF80914A01680F60934A0180E00895EC
:1004400081E0089582E00895089581E090E0309180
:10045000710120917001321710F480E090E09195C5
:10046000819591090895809171019091700189178A
:1004700030F48F5F8093710180E090E008958FEFFA
:100480009FEF08958091700190E020917101821B8F
:1004900091090895CF92DF92EF92FF920F931F93ED
:1004A000CF93DF937C01262F972F8A018091D10172
:1004B000882391F0C62FD72F6E01C40ED51ECC1500
:1004C000DD0571F06991D701ED91FC910190F0810A
:1004D000E02DC7010995F3CF642F822F0E94FC0104
:1004E000C801DF91CF911F910F91FF90EF90DF90A6
:1004F000CF900895CF93DF931F92CDB7DEB7698376
:100500002091D1012223D1F02091CE01203240F060
:1005100021E030E0FC013383228380E090E015C0CD
:100520008091CF01E82FF0E0E255FE4F9981908352
:100530008F5F8093CF018093CE0105C061E0CE0133
:1005400001960E94FC0181E090E00F90DF91CF9135
:1005500008956F927F928F929F92AF92BF92CF92A7
:10056000DF92EF92FF920F931F93CF93DF931F922F
:10057000CDB7DEB7E82ED62EC72EF42EFF0C84E0C2
:10058000782E6624639492E0B92EAA24AA9409E8EE
:1005900011E025EE922E35EC832E6092D10140932E
:1005A000D0011092CF011092CE016E2D8FE692E015
:1005B00049830E947A026C2D8FE692E00E947A02B3
:1005C0006D2D8FE692E00E947A022091CE01498142
:1005D000213208F045C09091AD019111FCCFB0924D
:1005E000AD016092AC01A092AB011092AA012093E0
:1005F000A901AEEAB1E0E9E8F1E08E2F801B821795
:1006000018F48D918193F9CF10928801209188017F
:100610002F292093880180918701813069F41092FD
:100620008701809188018093BB008091BC0083FD8D
:10063000F8CF8092BC0002C09092BC008091AD01C6
:100640008230E1F38091AB018F3F79F08091AB0173
:10065000803241F08091AB01803331F094E005C0ED
:1006600091E003C092E001C093E01092CF0110929C
:10067000CE011092D101911112C0892F90E00F90FC
:10068000DF91CF911F910F91FF90EF90DF90CF906E
:10069000BF90AF909F908F907F906F9008957A94C5
:1006A00071107BCFEACFCF92DF92EF92FF920F9340
:1006B0001F93CF93DF93EC010A811B8160177107B1
:1006C00028F5DB01653B710514F0A4EBB0E068018F
:1006D000E12CF12CB7FF02C0A0E0B0E02C813D81FD
:1006E000A90160E070E09A01AB012C193D094E09A7
:1006F0005F090E943D0924EB30E040E050E00E9499
:100700001309C20ED31EE41EF51EB60188818F3F69
:10071000E9F06017710710F4B80106C02C813D8123
:100720002617370708F4B9012E813F816217730736
:1007300081F07F836E834981DF91CF911F910F916B
:10074000FF90EF90DF90CF900C94A90285E090E0AD
:1007500002C080E090E0DF91CF911F910F91FF9058
:10076000EF90DF90CF900895CF93DF93EC018881D5
:100770008F3F49F0498160E070E00E94A902009734
:1007800021F48FEF888380E090E0DF91CF9108958E
:100790006231710510F00C94B403FC0160832AEE01
:1007A00031E03383228320E639E0358324830895C2
:1007B0008F929F92AF92BF920F931F93CF93DF932D
:1007C000CDB7DEB7A1970FB6F894DEBF0FBECDBF91
:1007D00019A2423008F44AE08E010F5D1F4F842EAB
:1007E000912CA12CB12CA50194010E944509E62F62
:1007F000B901CA0101501109EA3014F4E05D01C0E9
:10080000E95CD801EC93232B242B252B61F70115F0
:10081000110571F0F80101900020E9F73197AF015F
:10082000401B510BB80182ED91E00E94820002C092
:1008300080E090E0A1960FB6F894DEBF0FBECDBF6A
:10084000DF91CF911F910F91BF90AF909F908F90AC
:100850000895CF92DF92EF92FF92CF93DF936C01D6
:10086000990FEE08FF08F7FE1AC0E091D201F0914F
:10087000D3010190F081E02D6DE282ED91E00995C8
:10088000EC0166277727CB016C197D098E099F093A
:100890004AE00E94D8037C01EC0EFD1E06C04AE02F
:1008A000C701B6010E94D8037C0142E050E064E237
:1008B00071E082ED91E00E9482008E0D9F1DDF911C
:1008C000CF91FF90EF90DF90CF9008950E940E0996
:1008D0001F920F920FB60F9211242F933F938F9375
:1008E0009F93AF93BF938091830190918401A091D6
:1008F0008501B09186013091820123E0230F2D37CD
:1009000020F40196A11DB11D05C026E8230F029613
:10091000A11DB11D209382018093830190938401D6
:10092000A0938501B093860180917E0190917F0113
:10093000A0918001B09181010196A11DB11D80930C
:100940007E0190937F01A0938001B0938101BF91BC
:10095000AF919F918F913F912F910F900FBE0F906C
:100960001F9018951F920F920FB60F9211242F937C
:100970003F934F935F936F937F938F939F93AF9327
:10098000BF93EF93FF9382ED91E00E94E500FF910A
:10099000EF91BF91AF919F918F917F916F915F91F7
:1009A0004F913F912F910F900FBE0F901F90189570
:1009B0001F920F920FB60F9211242F938F939F9334
:1009C000EF93FF93E091E201F091E3018081E091E8
:1009D000E801F091E90182FD12C090818091EB0164
:1009E0008F5F8F732091EC01821751F0E091EB0142
:1009F000F0E0EE52FE4F958F8093EB0101C08081B5
:100A0000FF91EF919F918F912F910F900FBE0F90BB
:100A10001F9018951F920F920FB60F9211242F93CB
:100A20003F934F935F936F937F938F939F93AF9376
:100A3000BF93EF93FF9380916F0187FF05C01092E2
:100A40008500109284001BC020916F01022E000CC3
:100A5000330B80919F0290E02817390784F480912E
:100A60006F01082E000C990BFC01EE0FFF1F8E0F7B
:100A70009F1FFC01E558FD4F808186FD15C08091C8
:100A80006F018F5F80936F0120916F01022E000C28
:100A9000330B80919F0290E028173907C4F48091AE
:100AA0006F018C3064F113C080916F01082E000C2F
:100AB000990BFC01EE0FFF1F8E0F9F1FFC01E558E5
:100AC000FD4F808160E08F730E947901D8CF8091C3
:100AD000840090918500049680349C4918F480E449
:100AE0009CE905C0809184009091850004969093C4
:100AF0008900809388008FEF80936F013BC0209125
:100B000084003091850080916F01082E000C990BB4
:100B1000FC01EE0FFF1F8E0F9F1FFC01E558FD4FDC
:100B200081819281820F931F909389008093880026
:100B300080916F01082E000C990BFC01EE0FFF1F36
:100B40008E0F9F1FFC01E558FD4F808186FF12C06C
:100B500080916F01082E000C990BFC01EE0FFF1F16
:100B60008E0F9F1FFC01E558FD4F808161E08F7360
:100B70000E947901FF91EF91BF91AF919F918F9169
:100B80007F916F915F914F913F912F910F900FBE89
:100B90000F901F9018951F920F920FB60F9211246D
:100BA0002F933F934F935F936F937F938F939F9375
:100BB000AF93BF93EF93FF938091B900887F803606
:100BC00009F49CC068F5883209F45BC090F4803168
:100BD00009F454C038F4882309F4F6C0883009F4C5
:100BE0004DC0F6C0883109F44CC0803209F45DC0B4
:100BF000EFC0803409F468C048F4803309F455C06C
:100C0000883309F0E5C08093AB01D8C0803509F482
:100C10004FC0883509F45DC0883409F0D9C0D6C00A
:100C2000883909F4C7C0A8F4883709F467C038F4D4
:100C3000883609F463C0803709F460C0C9C08838B9
:100C400009F4B8C0803909F45FC0803809F0C0C029
:100C50005BC0803B09F486C038F4803A09F466C072
:100C6000883A09F47FC0B4C0803C09F4A7C0883C2E
:100C700009F4A4C0883B09F48AC0AAC08091880105
:100C800010C09091AA018091A901981770F5E09188
:100C9000AA0181E08E0F8093AA01F0E0E757FE4F92
:100CA00080818093BB0085EC86C08093AB018EC0B1
:100CB000E091AA0181E08E0F8093AA018091BB0090
:100CC000F0E0E757FE4F80839091AA018091A9013F
:100CD0006EC0E091AA0181E08E0F8093AA018091FD
:100CE000BB00F0E0E757FE4F80838091AC0181119B
:100CF0006DC081E08093870184EA61C083E08093C6
:100D0000AD0110926E01CFCF80916E01803208F05C
:100D100051C0E0916E0181E08E0F80936E01809151
:100D2000BB00F0E0E25BFE4F8083BDCF85EC80939B
:100D3000BC001092AD0180916E01803230F4E091E0
:100D40006E01F0E0E25BFE4F108260916E0170E098
:100D5000E0914C01F0914D018EE491E009951092E3
:100D60006E0136C084E08093AD0110924B01109269
:100D70004A01E0914801F0914901099580914A01A9
:100D8000811105C081E080934A0110922801E09111
:100D90004B0181E08E0F80934B01F0E0E85DFE4F48
:100DA00080818093BB0090914B0180914A019817FC
:100DB00008F479CF85E88093BC000AC085EC809365
:100DC000BC001092AD0104C01092AB010E94F20170
:100DD000FF91EF91BF91AF919F918F917F916F9113
:100DE0005F914F913F912F910F900FBE0F901F90E9
:100DF00018951092D5011092D40188EE93E0A0E0EE
:100E0000B0E08093D6019093D701A093D801B0931E
:100E1000D90128E031E03093D3012093D20125ECB1
:100E200030E03093DF012093DE0124EC30E030939A
:100E3000E1012093E00120EC30E03093E3012093C6
:100E4000E20121EC30E03093E5012093E40122EC53
:100E500030E03093E7012093E60126EC30E0309358
:100E6000E9012093E8011092EB011092EC0110923D
:100E7000ED011092EE0110927202109271028093B5
:100E8000730290937402A0937502B093760288E186
:100E900091E09093700280936F0280919F028C305A
:100EA000A0F491E0980F90939F028093C00290E08D
:100EB000FC01EE0FFF1F8E0F9F1FFC01E558FD4F39
:100EC00088EB9BE09283818303C08FEF8093C00205
:100ED00088EB92E00E94C50180EB92E00E94C50180
:100EE00088EA92E00E94C50180EA92E00C94C50174
:100EF000789484B5826084BD84B5816084BD85B5F5
:100F0000826085BD85B5816085BD80916E00816000
:100F100080936E00109281008091810082608093A6
:100F200081008091810081608093810080918000A8
:100F30008160809380008091B10084608093B100D3
:100F40008091B00081608093B00080917A008460CD
:100F500080937A0080917A00826080937A008091F9
:100F60007A00816080937A0080917A008068809313
:100F70007A001092C100E091E201F091E30182E079
:100F80008083E091DE01F091DF011082E091E001C9
:100F9000F091E1018FEC80831092EA01E091E6018B
:100FA000F091E70186E08083E091E401F091E501B2
:100FB000808180618083E091E401F091E50180818E
:100FC00088608083E091E401F091E5018081806890
:100FD0008083E091E401F091E50180818F7D808341
:100FE00066E070E088EB92E00E94C8036AE070E07F
:100FF00088EA92E00E94C8036BE070E080EA92E029
:101000000E94C80369E070E080EB92E00E94C80390
:1010100084E6F82E9AE0E92E82ED91E00E94CF005E
:10102000181619060CF0F1C082ED91E00E94AD0097
:101030008136910509F0E9C082ED91E00E94CF0070
:1010400097FDFACF82ED91E00E94CF0018161906A5
:10105000CCF782ED91E00E94AD00C0976C0182ED6B
:1010600091E00E94CF0018161906CCF782ED91E0AE
:101070000E94AD008C010053110982ED91E00E94A5
:10108000CF0018161906CCF782ED91E00E94AD0052
:10109000FC9CE001FD9CD00D1124E09E9001E19E9E
:1010A000300D1124C20FD31FC097C80FD91FD09382
:1010B0007701C093760182ED91E00E94CF0018166F
:1010C0001906CCF782ED91E00E94AD00C0975C015B
:1010D00082ED91E00E94CF0018161906CCF782ED40
:1010E00091E00E94AD00C0976C0182ED91E00E94FA
:1010F000CF0018161906CCF782ED91E00E94AD00E2
:10110000FA9C8001FB9C100D1124EC9C9001ED9C3D
:10111000300D1124020F131FC097080F191F1093D1
:1011200075010093740182ED91E00E94CF001816C2
:101130001906CCF782ED91E00E94AD00C0975C01EA
:1011400090937D0180937C0182ED91E00E94CF001D
:1011500018161906CCF782ED91E00E94AD00C097F9
:101160006C0190937B0180937A0182ED91E00E9463
:10117000CF0018161906CCF782ED91E00E94AD0061
:10118000AC01405351095093790140937801FA9C86
:101190009001FB9C300D1124EC9CC001ED9C900D46
:1011A0001124280F391F240F351F3093730120930A
:1011B0007201C53BD1054CF5053B110534F5253BC6
:1011C00031051CF5CE010E942904609176017091D1
:1011D000770188EB92E00E945303C0917401D09193
:1011E0007501BE0180EB92E00E945303CE010E9484
:1011F0002904C0917201D0917301BE0188EA92E086
:101200000E945303CE010E9429040E946F0104CF63
:10121000EE0FFF1F0590F491E02D099481E090E01E
:10122000F8940C947609052E97FB1EF400940E9406
:101230002A0957FD07D00E94450907FC03D04EF448
:101240000C942A0950954095309521953F4F4F4F6A
:101250005F4F089590958095709561957F4F8F4F62
:101260009F4F08950E946709A59F900DB49F900D10
:10127000A49F800D911D11240895B7FF0C9432098D
:101280000E943209821B930B0895A1E21A2EAA1B19
:10129000BB1BFD010DC0AA1FBB1FEE1FFF1FA21726
:1012A000B307E407F50720F0A21BB30BE40BF50B23
:1012B000661F771F881F991F1A9469F760957095AC
:1012C000809590959B01AC01BD01CF010895A29F2F
:1012D000B001B39FC001A39F700D811D1124911D0A
:1012E000B29F700D811D1124911D0895F894FFCFB8
:1012F000010000000000000006018200CF00AD00E8
:10130000C1004D01000000007A024A02420233028D
:08131000250224020D0A000071
:00000001FF
